S01500006D6F746F7220636F6E74726F6C2E73726563BD
S11300000C9434000C9446000C9446000C94460066
S11300100C944B000C9446000C9446000C9446003F
S11300200C9446000C9446000C9446000C94460034
S11300300C9446000C9446000C9446000C94460024
S11300400C9446000C9446000C9446000C94460014
S11300500C9446000C9446000C9446000C94460004
S11300600C9446000C94460011241FBECFEFD8E038
S1130070DEBFCDBF21E0A0E0B1E001C01D92A230FF
S1130080B207E1F70E9467000C94F8000C9400009A
S11300900E94AB0008951F920F920FB60F92112485
S11300A08F939F93309B02C0599A01C059988091B5
S11300B00001909101010196909301018093000148
S11300C09F918F910F900FBE0F901F9018951092D3
S11300D00101109200010E94480038983898409A13
S11300E0239A539A519A239A539A789480E090E0F1
S11300F040E45BE02091000130910101BA01621BF0
S1130100730B860F971F87BD109201011092000197
S11301107FE72AE136E0715020403040E1F700C02B
S11301200000E8CF38984098399841983A98429816
S11301303B9843980E94CC000895569A5E98559A2D
S11301405D980E94DC000895239A2B98539A5B983B
S11301500E94E90008958FEE8093640084B114B87E
S113016085B19FEF95B987B1807887B988B18F67DA
S113017088B98AB11AB88BB19BB940E060E881E6CE
S113018090E00E94D40013BE15BE0E9492000E940B
S11301909D000E94A400089582E0809368008FE08F
S11301A080936C0080E008952FB7F894E82FF92F1E
S11301B0608340832FBF0895E4E6F0E080818F7D63
S11301C0808383EA84BD81E085BD10926E0080E067
S11301D00895E4E6F0E080818F7B808383EA809356
S11301E0B00082E08093B1001092700080E0089526
S10701F0F894FFCFAD
S9030000FC
